:100000000C9462000C948A000C948A000C948A0070
:100010000C948A000C948A000C948A000C948A0038
:100020000C948A000C948A000C948A000C948A0028
:100030000C948A000C948A000C948A000C948A0018
:100040000C94F5020C948A000C9465030C943F0305
:100050000C948A000C948A000C948A000C948A00F8
:100060000C948A000C948A000000000023002600F3
:10007000290000000008000201000003040700003E
:1000800000000000000000000000250028002B00F8
:1000900000000000240027002A00040404040404D3
:1000A0000404020202020202030303030303010227
:1000B00004081020408001020408102001020408F6
:1000C0001020C20411241FBECFEFD8E0DEBFCDBF89
:1000D00011E0A0E0B1E0E2E3FAE002C005900D9289
:1000E000A032B107D9F721E0A0E2B1E001C01D9232
:1000F000AB3CB207E1F710E0C2E6D0E004C02197C4
:10010000FE010E941105C136D107C9F70E9497036D
:100110000C9417050C940000CF93DF9390E0FC0142
:10012000E255FF4F249186569F4FFC01849188230E
:10013000C1F090E0880F991FFC01E057FF4FC59177
:10014000D491FC01EA57FF4FA591B4919FB7F89461
:100150003881822F809583238883EC91E22BEC9366
:100160009FBFDF91CF91089590E0FC01EE58FF4FC3
:100170002491FC01E255FF4F3491FC01E656FF4FFC
:10018000E491EE23C1F1222339F02330E9F090F419
:10019000213001F1223011F1F0E0EE0FFF1FE8599C
:1001A000FF4FA591B491EC91E32381E090E029F514
:1001B00080E008952730A9F02830C9F0243061F795
:1001C000809180008F7D03C0809180008F77809325
:1001D0008000E2CF84B58F7784BDDECF84B58F7D7C
:1001E000FBCF8091B0008F778093B000D5CF809106
:1001F000B0008F7DF9CF80E090E008958E5080644C
:1002000080937C0080917A00806480937A00809152
:100210007A0086FDFCCF8091780090917900089556
:100220003FB7F89480912A0190912B01A0912C0165
:10023000B0912D0126B5A89B05C02F3F19F001965E
:10024000A11DB11D3FBFBA2FA92F982F8827BC0130
:10025000CD01620F711D811D911D42E0660F771F58
:10026000881F991F4A95D1F708958F929F92AF9258
:10027000BF92CF92DF92EF92FF924B015C010E94FE
:1002800010016B017C010E9410016C197D098E091F
:100290009F09683E734081059105A8F321E0821A09
:1002A0009108A108B10888EEC80E83E0D81EE11CB1
:1002B000F11C81149104A104B10429F7FF90EF907F
:1002C000DF90CF90BF90AF909F908F900895AF92A6
:1002D000BF92CF92DF92EF92FF920F931F93CF9333
:1002E000DF936C017B018B01040F151FEB015E0195
:1002F000AE18BF08C017D10759F06991D601ED912A
:10030000FC910190F081E02DC6010995892B79F7C8
:10031000C501DF91CF911F910F91FF90EF90DF907A
:10032000CF90BF90AF900895FC01538D448D252F41
:1003300030E0842F90E0821B930B541710F0CF967F
:10034000089501970895FC01918D828D981761F0B1
:10035000A28DAE0FBF2FB11D5D968C91928D9F5FC8
:100360009F73928F90E008958FEF9FEF0895FC01A7
:10037000918D828D981731F0828DE80FF11D858D5A
:1003800090E008958FEF9FEF0895FC01918D228DED
:10039000892F90E0805C9F4F821B91098F73992772
:1003A00008958EE291E00E94C50121E0892B09F4B5
:1003B00020E0822F089580E090E0892B29F00E94B0
:1003C000D10181110C9400000895FC01A48DA80FA7
:1003D000B92FB11DA35ABF4F2C91848D90E0019687
:1003E0008F739927848FA689B7892C93A089B189A7
:1003F0008C91837080648C93938D848D981306C048
:100400000288F389E02D80818F7D80830895EF92AB
:10041000FF920F931F93CF93DF93EC0181E0888FBE
:100420009B8D8C8D98131AC0E889F989808185FF8E
:1004300015C09FB7F894EE89FF896083E889F98930
:1004400080818370806480839FBF81E090E0DF9132
:10045000CF911F910F91FF90EF900895F62E0B8D85
:1004600010E00F5F1F4F0F731127E02E8C8D8E1140
:100470000CC00FB607FCFACFE889F989808185FFA7
:10048000F5CFCE010E94E501F1CFEB8DEC0FFD2FF2
:10049000F11DE35AFF4FF0829FB7F8940B8FEA8962
:1004A000FB8980818062CFCFCF93DF93EC01888D71
:1004B0008823B9F0AA89BB89E889F9898C9185FDDF
:1004C00003C0808186FD0DC00FB607FCF7CF8C916D
:1004D00085FFF2CF808185FFEDCFCE010E94E5013F
:1004E000E9CFDF91CF910895FC0101900020E9F759
:1004F0003197AF01481B590BBC018EE291E00C947F
:1005000067018F929F92AF92BF920F931F93CF93E9
:10051000DF93CDB7DEB7A1970FB6F894DEBF0FBE5D
:10052000CDBF19A2423008F44AE08E010F5D1F4F83
:10053000842E912CB12CA12CA50194010E94EF04D2
:10054000E62FB901CA01EA30F4F4E05DD801EE9378
:100550008D01232B242B252B79F790E080E0109739
:1005600019F0CD010E947402A1960FB6F894DEBF77
:100570000FBECDBFDF91CF911F910F91BF90AF9074
:100580009F908F900895E95CE1CFCF92DF92EF9238
:10059000FF92CF93DF936C01990FEE08FF08F7FEEF
:1005A00019C06DE28EE291E00E940702EC0166271D
:1005B0007727CB016C197D098E099F094AE00E94BB
:1005C00081028C0F9D1FDF91CF91FF90EF90DF9004
:1005D000CF9008954AE0C701B601DF91CF91FF9017
:1005E000EF90DF90CF900C9481021F920F920FB684
:1005F0000F9211242F933F938F939F93AF93BF93A9
:100600008091260190912701A0912801B0912901A4
:100610003091250123E0230F2D3758F50196A11DB8
:10062000B11D209325018093260190932701A0936B
:100630002801B093290180912A0190912B01A0916A
:100640002C01B0912D010196A11DB11D80932A01AD
:1006500090932B01A0932C01B0932D01BF91AF91EA
:100660009F918F913F912F910F900FBE0F901F90F0
:10067000189526E8230F0296A11DB11DD2CF1F9217
:100680000F920FB60F9211242F933F934F935F93C6
:100690006F937F938F939F93AF93BF93EF93FF934A
:1006A0008EE291E00E94E501FF91EF91BF91AF9141
:1006B0009F918F917F916F915F914F913F912F917A
:1006C0000F900FBE0F901F9018951F920F920FB6AC
:1006D0000F9211242F938F939F93EF93FF93E091A9
:1006E0003E01F0913F018081E0914401F09145018C
:1006F00082FD1BC09081809147018F5F8F73209195
:100700004801821741F0E0914701F0E0E25DFE4FC1
:10071000958F80934701FF91EF919F918F912F913A
:100720000F900FBE0F901F9018958081F4CF789492
:1007300084B5826084BD84B5816084BD85B58260E6
:1007400085BD85B5816085BD80916E008160809397
:100750006E00109281008091810082608093810000
:100760008091810081608093810080918000816010
:10077000809380008091B10084608093B10080916B
:10078000B00081608093B00080917A008460809393
:100790007A0080917A00826080937A0080917A005A
:1007A000816080937A0080917A00806880937A00DB
:1007B0001092C100E0913E01F0913F0182E0808300
:1007C000E0913A01F0913B011082E0913C01F091FF
:1007D0003D018FEC808310924601E0914201F0913F
:1007E000430186E08083E0914001F09141018081E6
:1007F00080618083E0914001F091410180818860B7
:100800008083E0914001F091410180818068808384
:10081000E0914001F091410180818F7D808382E0F1
:100820000E948C0083E00E948C0084E00E948C0077
:1008300085E00E948C0086E00E948C0087E00E9488
:100840008C0088E00E948C0080E10E948C0068EEA1
:1008500073E080E090E00E943501C0E0D0E011E05C
:100860008FE00E94FE0090932101809320018EE092
:100870000E94FE0090932301809322011092240194
:1008800082E00E94B400892B11F41093240183E0CC
:100890000E94B400892B29F4809124018260809306
:1008A000240184E00E94B400892B29F48091240162
:1008B00084608093240185E00E94B400892B29F490
:1008C0008091240188608093240186E00E94B40016
:1008D000892B29F48091240180618093240187E091
:1008E0000E94B400892B29F48091240180628093B6
:1008F000240188E00E94B400892B29F4809124010E
:1009000080648093240180E10E94B400892B29F443
:100910008091240180688093240182E191E00E940B
:10092000740280912001909121010E94C50285E10D
:1009300091E00E94740280912201909123010E9413
:10094000C50289E191E00E9474026091240170E087
:1009500090E080E042E00E9481028DE191E00E94FF
:1009600074026AEF70E080E090E00E943501209709
:1009700009F476CF0E94D101882309F471CF0E9437
:1009800000006ECFEEE2F1E01382128288EE93E077
:10099000A0E0B0E084839583A683B78384E091E0F0
:1009A0009183808385EC90E09587848784EC90E048
:1009B0009787868780EC90E0918B808B81EC90E02C
:1009C000938B828B82EC90E0958B848B86EC90E00D
:1009D000978B868B118E128E138E148E0895A1E242
:1009E0001A2EAA1BBB1BFD010DC0AA1FBB1FEE1FA9
:1009F000FF1FA217B307E407F50720F0A21BB30BF4
:100A0000E40BF50B661F771F881F991F1A9469F76F
:100A100060957095809590959B01AC01BD01CF01CB
:100A20000895EE0FFF1F0590F491E02D0994F894BE
:020A3000FFCFF6
:100A3200000000000702670194015402C501A301EE
:100A4200B701583A002C593A002C423A000D0A00DC
:00000001FF
