:020000040000FA
:100000000C945E000C9486000C9486000C94860080
:100010000C9486000C9486000C9486000C94860048
:100020000C9486000C9486000C9486000C948B042F
:100030000C9486000C9486000C9486000C94860028
:100040000C94E9030C9486000C9459040C9433042A
:100050000C9486000C9486000C9486000C94860008
:100060000C9486000C948600000000080002010039
:100070000003040700000000000000000000000072
:10008000250028002B0000000000240027002A0083
:10009000040404040404040402020202020203032E
:1000A0000303030301020408102040800102040836
:1000B000102001020408102047055D0811241FBE0E
:1000C000CFEFD8E0DEBFCDBF11E0A0E0B1E0E2EEBF
:1000D000F6E102C005900D92A432B107D9F722E0F3
:1000E000A4E2B1E001C01D92A330B207E1F710E035
:1000F000CDE5D0E004C02197FE010E945209CC3525
:10010000D107C9F70E94A9050C94640B0C94000058
:1001100090E0FC01EC55FF4F249180579F4FFC016C
:100120008491882399F090E0880F991FFC01EA5789
:10013000FF4FA591B491FC01E458FF4F8591949134
:100140008FB7F894EC91E22BEC938FBF08958F92C8
:100150009F92AF92BF92FF920F931F93CF93DF9323
:10016000F090FC012BE02F1508F44CC02091FE010B
:1001700008E512E0021B110927FD1395000F111F5E
:10018000000F111F2091FD01C8E8D0E0C21BD1096A
:1001900027FDD395CC0FDD1FCC0FDD1F4E010D2E9B
:1001A000000CAA08BB089801012E000C440B550B4B
:1001B000281939094A095B09DC010E94C70824EBA8
:1001C00030E040E050E00E949D08820E931EA41E85
:1001D000B51E8C169D062CF0E801801691060CF4D5
:1001E000E4012297CC0FDD1F2FB7F8948F2D90E0FC
:1001F000FC01EE0FFF1FE80FF91FEF52FE4FD283F5
:10020000C1832FBFDF91CF911F910F91FF90BF90BE
:10021000AF909F908F90089590E0FC01E859FF4FB8
:100220002491FC01EC55FF4F3491FC01E057FF4F46
:10023000E491EE23C9F0222339F0233001F1A8F430
:10024000213019F1223029F1F0E0EE0FFF1FE458C0
:10025000FF4FA591B4918FB7F894EC91611126C02E
:1002600030953E233C938FBF08952730A9F0283066
:10027000C9F0243049F7809180008F7D03C08091C0
:1002800080008F7780938000DFCF84B58F7784BD27
:10029000DBCF84B58F7DFBCF8091B0008F778093CB
:1002A000B000D2CF8091B0008F7DF9CF3E2BDACF56
:1002B000CF93DF93EC0185E00E948800209731F412
:1002C00060E085E0DF91CF910C940C01CF3FD10528
:1002D00011F461E0F6CFEDE6F0E0E491E33029F1CE
:1002E00040F4E130B1F0E230D9F0C038D1058CF7FC
:1002F000E7CFE73021F1E83051F1E430B1F78091F8
:100300008000806280938000D0938B00C0938A002D
:1003100004C084B5806884BDC7BDDF91CF910895C6
:1003200084B5806284BDC8BDF8CF809180008068AC
:1003300080938000D0938900C0938800EECF809195
:10034000B00080688093B000C093B300E6CF809186
:10035000B00080628093B000C093B400DECFAF9253
:10036000BF92CF92DF92EF92FF920F931F93CF93A2
:10037000DF936C017B018B01040F151FEB015E0104
:10038000AE18BF08C017D10759F06991D601ED9199
:10039000FC910190F081E02DC6010995892B79F738
:1003A000C501DF91CF911F910F91FF90EF90DF90EA
:1003B000CF90BF90AF900895FC01538D448D252FB1
:1003C00030E0842F90E0821B930B541710F0CF96EF
:1003D000089501970895FC01918D828D981761F021
:1003E000A28DAE0FBF2FB11D5D968C91928D9F5F38
:1003F0009F73928F90E008958FEF9FEF0895FC0117
:10040000918D828D981731F0828DE80FF11D858DC9
:1004100090E008958FEF9FEF0895FC01918D228D5C
:10042000892F90E0805C9F4F821B91098F739927E1
:10043000089584E391E00E940D0221E0892B09F4E4
:1004400020E0822F0895FC01A48DA80FB92FB11DC3
:10045000A35ABF4F2C91848D90E001968F739927FA
:10046000848FA689B7892C93A089B1898C918370D8
:1004700080648C93938D848D981306C00288F389D1
:10048000E02D80818F7D80830895EF92FF920F93FE
:100490001F93CF93DF93EC0181E0888F9B8D8C8D30
:1004A00098131AC0E889F989808185FF15C09FB724
:1004B000F894EE89FF896083E889F98980818370E7
:1004C000806480839FBF81E090E0DF91CF911F9196
:1004D0000F91FF90EF900895F62E0B8D10E00F5FB7
:1004E0001F4F0F731127E02E8C8D8E110CC00FB68D
:1004F00007FCFACFE889F989808185FFF5CFCE0125
:100500000E942302F1CFEB8DEC0FFD2FF11DE35A7A
:10051000FF4FF0829FB7F8940B8FEA89FB898081A7
:100520008062CFCFCF93DF93EC01888D8823B9F021
:10053000AA89BB89E889F9898C9185FD03C08081EE
:1005400086FD0DC00FB607FCF7CF8C9185FFF2CF6B
:10055000808185FFEDCFCE010E942302E9CFDF919C
:10056000CF910895FC0180819181009711F00C9446
:10057000F4090895CF93DF932091FA013091FB01A4
:10058000232B89F0FC01C091F601D091F701608125
:100590007181CE010E944A0B009729F08C1B9D0BA4
:1005A000DF91CF9108958FEF9FEFFACF0F931F93B5
:1005B000CF93DF93EC0188819981009759F02A81CC
:1005C0003B812617370730F081E0DF91CF911F91F3
:1005D0000F9108958B016F5F7F4F0E947D0A0097F6
:1005E00059F0998388831B830A832C813D81232BB7
:1005F00059F7FC011082E8CF80E0E7CFEF92FF923D
:100600000F931F93CF93DF93EC017B018A01BA0113
:100610000E94D60228813981811114C0211531052B
:1006200019F0C9010E94F409198218821D821C82E6
:100630001B821A82CE01DF91CF911F910F91FF9003
:10064000EF9008951D830C83B701C9010E94430BED
:10065000F1CFCF92DF92EF92FF920F931F93CF9340
:10066000DF93EC016B017A014617570720F48D2DBB
:100670006A01E62EF82E198218821B821A821D82C8
:100680001C8250E040E062E271E0CE010E94FE0276
:100690000091FA011091FB01C016D10640F5E01659
:1006A000F10608F48701E091F601F091F701E00FFF
:1006B000F11FF08010826091F6017091F7016C0DCE
:1006C0007D1D61157105E9F0FB0101900020E9F73E
:1006D0003197AF01461B570BCE010E94FE0280915D
:1006E000F6019091F701080F191FF801F082CE0171
:1006F000DF91CF911F910F91FF90EF90DF90CF90FE
:10070000089588819981009711F00E94F409198257
:1007100018821D821C821B821A82E1CFFC01118289
:1007200010821382128215821482FB010190002034
:10073000E9F73197AF01461B570B0C94FE02FF926D
:100740000F931F93CF93DF9300D0CDB7DEB7FF2475
:10075000F39484E391E00E940D02892B61F184E31C
:1007600091E00E94EB018A3019F4F0922A01F1CF56
:1007700089831A820091FA011091FB010F5F1F4FCC
:10078000B80186EF91E00E94D602882311F32091F0
:10079000F6013091F7018091FA019091FB01BE01C1
:1007A0006F5F7F4F820F931F0E94430B1093FB01DB
:1007B0000093FA01CECF0F900F90DF91CF911F9150
:1007C0000F91FF9008950E94190281110C949F03CC
:1007D00008951F920F920FB60F9211242F933F93FB
:1007E0008F939F93AF93BF9380913001909131018C
:1007F000A0913201B091330130912F0123E0230FFA
:100800002D3758F50196A11DB11D20932F0180931E
:10081000300190933101A0933201B0933301809164
:100820002B0190912C01A0912D01B0912E010196E8
:10083000A11DB11D80932B0190932C01A0932D013C
:10084000B0932E01BF91AF919F918F913F912F91C6
:100850000F900FBE0F901F90189526E8230F029659
:10086000A11DB11DD2CF1F920F920FB60F9211246E
:100870002F933F934F935F936F937F938F939F93A8
:10088000AF93BF93EF93FF9384E391E00E94230221
:10089000FF91EF91BF91AF919F918F917F916F9158
:1008A0005F914F913F912F910F900FBE0F901F902E
:1008B00018951F920F920FB60F9211242F938F93BA
:1008C0009F93EF93FF93E0914401F0914501808164
:1008D000E0914A01F0914B0182FD1BC09081809113
:1008E0004D018F5F8F7320914E01821741F0E0918F
:1008F0004D01F0E0EC5CFE4F958F80934D01FF9130
:10090000EF919F918F912F910F900FBE0F901F909D
:1009100018958081F4CF1F920F920FB60F92112479
:100920002F933F934F935F936F937F938F939F93F7
:10093000AF93BF93CF93DF93EF93FF938091240105
:10094000C091F501D0E087FF24C01092850010927D
:100950008400809124018F5F809324018091240181
:10096000082E000C990B8C179D0724F4809124010C
:100970008C30C4F18091840090918500049680347D
:100980009C4908F47AC08091840090918500049677
:1009900076C080912401082E000C990B8C179D07BE
:1009A000C4F6E09124018E2FEE0F990BFC01EE0F9F
:1009B000FF1FE80FF91FEF52FE4F808186FFC9CF5E
:1009C000E09124018E2FEE0F990BFC01EE0FFF1F1B
:1009D000E80FF91FEF52FE4F808160E08F730E9495
:1009E0000C01B7CF2091840030918500E091240163
:1009F0008E2FEE0F990BFC01EE0FFF1FE80FF91F72
:100A0000EF52FE4F81819281820F931F9093890054
:100A100080938800E09124018E2FEE0F990BFC014A
:100A2000EE0FFF1FE80FF91FEF52FE4F808186FF88
:100A300011C0E09124018E2FEE0F990BFC01EE0FF7
:100A4000FF1FE80FF91FEF52FE4F808161E08F73A7
:100A50000E940C01FF91EF91DF91CF91BF91AF9177
:100A60009F918F917F916F915F914F913F912F91C6
:100A70000F900FBE0F901F90189580E49CE9909303
:100A80008900809388008FEF80932401E3CF109238
:100A900037011092360188EE93E0A0E0B0E0809339
:100AA000380190933901A0933A01B0933B018AE059
:100AB00091E0909335018093340185EC90E0909320
:100AC00041018093400184EC90E090934301809336
:100AD000420180EC90E0909345018093440181ECC9
:100AE00090E0909347018093460182EC90E09093D0
:100AF00049018093480186EC90E090934B018093EC
:100B00004A0110924D0110924E0110924F01109225
:100B100050018091F5018C30C0F491E0980F9093D2
:100B2000F5018093FC0190E0FC01EE0FFF1FE80F40
:100B3000F91FEF52FE4F88EB9BE09283818362E2C4
:100B400071E086EF91E00C948E038FEF8093FC01AF
:100B5000F6CFCF93DF9300D000D000D0CDB7DEB773
:100B6000789484B5826084BD84B5816084BD85B588
:100B7000826085BD85B5816085BD80916E00816094
:100B800080936E001092810080918100826080933A
:100B9000810080918100816080938100809180003C
:100BA0008160809380008091B10084608093B10067
:100BB0008091B00081608093B00080917A00846061
:100BC00080937A0080917A00826080937A0080918D
:100BD0007A00816080937A0080917A0080688093A7
:100BE0007A001092C100E0914401F091450182E049
:100BF0008083E0914001F09141011082E091420137
:100C0000F09143018FEC808310924C01E0914801F8
:100C1000F091490186E08083E0914601F09147011F
:100C2000808180618083E0914601F091470180815D
:100C300088608083E0914601F0914701808180685F
:100C40008083E0914601F091470180818F7D808310
:100C500082E00E94880082E10E94880084E00E9475
:100C6000880081E10E94880086E00E94880087E079
:100C70000E94880088E00E9488008EE00E94880020
:100C800085E00E9488008FE00E94880080E10E9439
:100C900088008091FC018C3008F050C083E00E94F5
:100CA00088008091FC01282F30E0F901EE0FFF1F32
:100CB000E20FF31FEF52FE4F9081907C9360908380
:100CC0001092FD011092FE012CE0622F0E94370964
:100CD000829FB001112430E020E0AB01420F531F8E
:100CE000FA01EE0FFF1FE40FF51FEF52FE4F908148
:100CF00096FD16C02F5F3F4F2C30310571F78111E3
:100D00000FC01092800082E08093810010928500D5
:100D100010928400B19A80916F00826080936F007E
:100D2000E091FC018E2F90E0FC01EE0FFF1FE80F19
:100D3000F91FEF52FE4F8081806480838AE590E046
:100D40000E94A70060E082E00E940C0160E082E166
:100D50000E940C0160E084E00E940C0160E081E1EF
:100D60000E940C0160E086E00E940C0160E087E0D8
:100D70000E940C0160E088E00E940C0160E08EE0BF
:100D80000E940C0190E080E00E94580160E08FE03A
:100D90000E940C0160E080E10E940C0162E370E0BF
:100DA00086EF91E00E94D60287EE882E99249394D4
:100DB000A12CB12C96EE492E55245394612C712C04
:100DC00080912A01882309F4E9C068E171E0CE012D
:100DD00001960E948E03CE0101960E94BA026C0118
:100DE000CE0101960E94B2026BE171E0CE01019644
:100DF0000E948E03CE0101960E94BA027C01CE01B0
:100E000001960E94B2026FE171E0CE0101960E944C
:100E10008E03CE0101960E94BA028C01CE0101968A
:100E20000E94B2028FEFC816D80609F44FC08FEFA8
:100E3000E816F80609F44AC00F3F100709F446C047
:100E4000B6016E5F7F4FA701CE0101960E94290374
:100E500089819A81009709F4A9C00E946108709362
:100E6000260160932501CE0101960E94B202B701CE
:100E70006D5F7F4FA801CE0101960E9429038981F1
:100E80009A81009709F496C00E9461087093280126
:100E900060932701CE0101960E94B2024091FA01AF
:100EA0005091FB01B8016D5F7F4FCE0101960E940A
:100EB000290389819A8160E0009711F00E946108FE
:100EC00060932901CE0101960E94B202109129017E
:100ED00061E082E010FD72C060E082E011FF6EC050
:100EE0000E940C0161E082E10E940C0161E084E05B
:100EF00012FD68C060E084E013FF64C00E940C0132
:100F000061E081E10E940C0161E086E014FD5EC0B9
:100F100060E086E015FF5AC00E940C0161E087E0A6
:100F20000E940C0161E088E016FD54C060E088E09A
:100F300017FF50C00E940C0161E08EE00E940C017E
:100F40000091270110912801C801875E9140C39745
:100F500008F044C090E080E00E94580160E08FE01B
:100F60000E940C0160E080E10E940C01A09125012B
:100F7000B0912601CD01875E9140C39708F06FC004
:100F80008AE590E00E94A70050E040E062E271E054
:100F900086EF91E00E94FE0210922A010E9419023F
:100FA000882309F40DCF0E949F030ACF60E070E010
:100FB000CB0155CF60E070E0CB0168CF0E940C01FF
:100FC00060E091CF0E940C0160E09BCF0E940C0179
:100FD00060E0A5CF0E940C0160E0AFCF6801012E58
:100FE000000CEE08FF080A3182E0180704F161E006
:100FF0008FE00E940C0160E080E10E940C01A701DB
:1010000096012951324041095109AFEFB0E00E94E9
:10101000BC08A30192010E949D08C9018F3F910560
:1010200019F014F08FEF90E00E9458019FCF60E01C
:101030008FE00E940C0161E080E10E940C019801A8
:10104000A1E0BFEF0E944309A50194010E949D0801
:10105000DA01C90181509F4FAF4FBF4FDFCF9D01D4
:101060000B2E000C440B550BAA3182E0B807C4F0DC
:101070002951324041095109AAE5B0E00E94BC085B
:10108000A30192010E949D08265A3F4F4F4F5F4F88
:10109000C901253B31050CF475CF84EB90E072CF8C
:1010A0002AE530E00E944B09A50194010E949D08A9
:1010B00090E080E037FD66CFEBCF86EF91E00C94B7
:1010C000B2021F93FC0199278827BC01E894119173
:1010D0001032E9F3193010F01E30C8F31B3251F012
:1010E0001D3249F4689406C00E948808610F711D82
:1010F000811D911D119110531A30B0F33EF490955B
:101100008095709561957F4F8F4F9F4F1F910895E8
:10111000592F482F372F262F660F771F881F991FAB
:10112000660F771F881F991F620F731F841F951FFB
:10113000660F771F881F991F0895052E97FB1EF4D1
:1011400000940E94B40857FD07D00E94060907FCCE
:1011500003D04EF40C94B4085095409530952195E9
:101160003F4F4F4F5F4F08959095809570956195D3
:101170007F4F8F4F9F4F08950E942809A59F900D84
:10118000B49F900DA49F800D911D11240895B7FF69
:101190000C94BC080E94BC08821B930B08952F92EC
:1011A0003F924F925F926F927F928F929F92AF92F7
:1011B000BF92CF92DF92EF92FF920F931F93CF9344
:1011C000DF93CDB7DEB7CA1BDB0B0FB6F894DEBFDB
:1011D0000FBECDBF09942A88398848885F846E8401
:1011E0007D848C849B84AA84B984C884DF80EE804B
:1011F000FD800C811B81AA81B981CE0FD11D0FB654
:10120000F894DEBF0FBECDBFED010895A1E21A2E06
:10121000AA1BBB1BFD010DC0AA1FBB1FEE1FFF1F9A
:10122000A217B307E407F50720F0A21BB30BE40BEA
:10123000F50B661F771F881F991F1A9469F7609531
:101240007095809590959B01AC01BD01CF010895EB
:10125000A29FB001B39FC001A39F700D811D1124F7
:10126000911DB29F700D811D1124911D0895991B30
:1012700079E004C0991F961708F0961B881F7A958D
:10128000C9F7809508950E942809332312F48A1B18
:101290009B0B0C944D090E942809B7FF0895821BEF
:1012A000930B0895EE0FFF1F0590F491E02D099424
:1012B0000F931F93CF93DF938230910510F482E058
:1012C00090E0E0910102F091020230E020E0B0E015
:1012D000A0E0309799F42115310509F44AC0281B84
:1012E000390B24303105D8F58A819B816115710550
:1012F00089F1FB0193838283FE0111C040815181FA
:101300000281138148175907E0F04817590799F4EB
:10131000109761F012960C93129713961C933296C5
:10132000CF01DF91CF911F910F910895009301029A
:1013300010930202F4CF2115310551F042175307E3
:1013400038F0A901DB019A01BD01DF01F801C1CF2D
:10135000EF01F9CF9093020280930102CDCFFE01FD
:10136000E20FF31F8193919322503109398328832F
:10137000D7CF2091FF0130910002232B41F420911F
:10138000020130910301309300022093FF0120916C
:101390000001309101012115310541F42DB73EB70F
:1013A0004091040150910501241B350BE091FF0190
:1013B000F0910002E217F307A0F42E1B3F0B281751
:1013C000390778F0AC014E5F5F4F2417350748F0BE
:1013D0004E0F5F1F509300024093FF018193919342
:1013E0009FCFF0E0E0E09CCFCF93DF930097E9F050
:1013F000FC01329713821282A0910102B091020285
:10140000ED0130E020E01097A1F420813181820FBE
:10141000931F2091FF01309100022817390709F02E
:1014200061C0F0930002E093FF01DF91CF91089536
:10143000EA01CE17DF07E8F54A815B819E0141157D
:101440005105B1F7E901FB83EA8349915991C40F32
:10145000D51FEC17FD0761F4808191810296840FFE
:10146000951FE90199838883828193819B838A8375
:10147000F0E0E0E012968D919C9113970097B9F5FA
:101480002D913C911197CD010296820F931F2091CF
:10149000FF01309100022817390739F6309751F5CE
:1014A0001092020210920102B0930002A093FF0179
:1014B000BCCFD383C28340815181840F951FC8174D
:1014C000D90761F44E5F5F4F88819981480F591F9A
:1014D000518340838A819B819383828321153105C7
:1014E00009F0B0CFF0930202E09301029ECFFD011C
:1014F000DC01C0CF13821282D7CFB0E0A0E0E3E8D6
:10150000FAE00C94D1088C01009751F4CB010E94B1
:1015100058098C01C801CDB7DEB7E0E10C94ED08A5
:10152000FC01E60FF71F9C0122503109E217F30777
:1015300008F49DC0D901CD91DC911197C617D7074A
:1015400098F0C530D10530F3CE0104978617970780
:1015500008F3C61BD70B2297C193D1936D937C934D
:10156000CF010E94F409D6CF5B01AC1ABD0A4C0131
:101570008C0E9D1EA0910102B0910202512C412CB3
:10158000F12CE12C109731F58091FF019091000230
:101590008815990509F05CC04616570608F058C032
:1015A0008091000190910101009741F48DB79EB7A1
:1015B0004091040150910501841B950BE817F90730
:1015C00008F055C0F0930002E093FF01F901718328
:1015D0006083A0CF8D919C91119712966C90129779
:1015E00013967C901397A815B90559F56C0142E044
:1015F000C40ED11CCA14DB0420F1AC014A195B09EA
:10160000DA011296159780F06282738251834083CB
:10161000D9016D937C93E114F10471F0D701139615
:10162000FC93EE93129776CF22968C0F9D1FF901B3
:1016300091838083F301EFCFF0930202E0930102E4
:1016400069CF4816590608F42C017D01D3019ACFC1
:10165000CB010E9458097C01009749F0AE01B80106
:101660000E943A0BC8010E94F409870153CF10E091
:1016700000E050CFFB01DC0102C001900D9241500F
:101680005040D8F70895FB01DC0101900D92002035
:10169000E1F70895FB0151915523A9F0BF01DC0149
:1016A0004D9145174111E1F759F4CD01019000200A
:1016B00049F04D9140154111C9F3FB014111EFCFA4
:1016C00081E090E00197089510E0CDE5D0E004C0FE
:1016D000FE010E9452092196CE35D107C9F7F89430
:1016E000FFCF000003028000000000004502AF01B0
:1016F000DC0192020D02EB01FF01583A002C593A2D
:06170000002C423A00003B
:107E0000112484B714BE81FFF0D085E080938100F7
:107E100082E08093C00088E18093C10086E0809377
:107E2000C20080E18093C4008EE0C9D0259A86E02C
:107E300020E33CEF91E0309385002093840096BBD3
:107E4000B09BFECF1D9AA8958150A9F7CC24DD24C4
:107E500088248394B5E0AB2EA1E19A2EF3E0BF2EE7
:107E6000A2D0813461F49FD0082FAFD0023811F036
:107E7000013811F484E001C083E08DD089C08234E0
:107E800011F484E103C0853419F485E0A6D080C0E4
:107E9000853579F488D0E82EFF2485D0082F10E0AE
:107EA000102F00270E291F29000F111F8ED06801E7
:107EB0006FC0863521F484E090D080E0DECF843638
:107EC00009F040C070D06FD0082F6DD080E0C81688
:107ED00080E7D80618F4F601B7BEE895C0E0D1E017
:107EE00062D089930C17E1F7F0E0CF16F0E7DF06D8
:107EF00018F0F601B7BEE89568D007B600FCFDCFD4
:107F0000A601A0E0B1E02C9130E011968C91119780
:107F100090E0982F8827822B932B1296FA010C0160
:107F200087BEE89511244E5F5F4FF1E0A038BF0790
:107F300051F7F601A7BEE89507B600FCFDCF97BE46
:107F4000E89526C08437B1F42ED02DD0F82E2BD052
:107F50003CD0F601EF2C8F010F5F1F4F84911BD097
:107F6000EA94F801C1F70894C11CD11CFA94CF0C13
:107F7000D11C0EC0853739F428D08EE10CD085E9AC
:107F80000AD08FE07ACF813511F488E018D01DD067
:107F900080E101D065CF982F8091C00085FFFCCF94
:107FA0009093C60008958091C00087FFFCCF809118
:107FB000C00084FD01C0A8958091C6000895E0E648
:107FC000F0E098E1908380830895EDDF803219F02E
:107FD00088E0F5DFFFCF84E1DECF1F93182FE3DFCA
:107FE0001150E9F7F2DF1F91089580E0E8DFEE27F6
:047FF000FF270994CA
:027FFE00040479
:00000001FF
